:020000040800F2
:10000000205000205D02000839190008A9170008D7
:1000100015180008FF0300084D2300080000000029
:100020000000000000000000000000009D0100082A
:100030005105000800000000F9010008311D00080A
:1000400077020008770200087702000877020008AC
:10005000770200087702000877020008770200089C
:10006000770200087702000877020008770200088C
:10007000770200087702000877020008770200087C
:10008000770200087702000877020008770200086C
:1000900001040008770200087702000877020008D0
:1000A00077020008351E0008770200087702000872
:1000B000770200087702000877020008770200083C
:1000C000770200087702000877020008770200082C
:1000D0007702000841230008770200087702000831
:1000E000770200087702000877020008770200080C
:1000F00077020008770200087702000877020008FC
:1001000077020008770200087702000877020008EB
:1001100077020008770200087702000877020008DB
:1001200077020008770200087702000877020008CB
:1001300077020008770200087702000877020008BB
:1001400077020008770200087702000877020008AB
:10015000770200087702000877020008770200089B
:10016000770200087702000877020008770200088B
:1001700077020008770200087702000800000000FC
:100180007702000877020008DFF80CD000F0FAF8D8
:100190000048004731300008205000202C4B1968DF
:1001A0000868B0E8F04F80F30988BFF36F8F4FF015
:1001B000000080F3118870470000000008480068C4
:1001C000006880F308884FF0000080F3148862B65E
:1001D00061B6BFF34F8FBFF36F8F00DF00BF00BF6B
:1001E00008ED00E0DFF80C00016841F470010160E7
:1001F000704700BF88ED00E0EFF30980BFF36F8F19
:10020000134B1A681EF0100F08BF20ED108A20E96A
:10021000F04F106009B44FF0500080F31188BFF325
:100220004F8FBFF36F8F05F037FA4FF0000080F368
:10023000118809BC19680868B0E8F04F1EF0100F6B
:1002400008BFB0EC108A80F30988BFF36F8F704746
:1002500030000020EFF3058070470000064880471B
:1002600006480047FEE7FEE7FEE7FEE7FEE7FEE79B
:10027000FEE7FEE7FEE7FEE7E11D00088901000852
:100280002DE9F05F0546002092469B4688460646CB
:10029000814640241BE0284641464746224600F05E
:1002A00060F853465A46C01A914110D31146184679
:1002B000224600F047F82D1A67EB01084F46224608
:1002C0000120002100F03EF817EB00094E41201EEE
:1002D000A4F10104DFDC484631462A464346BDE826
:1002E000F09F40EA01039B0703D009E008C9121FF1
:1002F00008C0042AFAD203E011F8013B00F8013BE0
:10030000521EF9D27047D2B201E000F8012B491E0B
:10031000FBD270470022F6E710B513460A460446A2
:100320001946FFF7F0FF204610BD30B50446002007
:10033000034600E05B1C934203D2E05CCD5C401BB3
:10034000F8D030BD202A04DB203A00FA02F1002068
:1003500070479140C2F1200320FA03F31943904003
:100360007047202A04DB203A21FA02F0002170476E
:1003700021FA02F3D040C2F120029140084319460D
:1003800070470000064C074D06E0E06840F00103AE
:1003900094E8070098471034AC42F6D3FFF7F8FE14
:1003A000F05F00081060000870B58C1810F8015B51
:1003B00015F0070301D110F8013B2A1106D110F8FE
:1003C000012B03E010F8016B01F8016B5B1EF9D102
:1003D0002B0705D40023521E0DD401F8013BFAE788
:1003E00010F8013BCB1A921C03E013F8015B01F8F3
:1003F000015B521EF9D5A142D8D3002070BDFEE7A3
:1004000000B58BB0144800F094F900200A9013A0B6
:1004100001F09EFF05F018F800210F4801AA08AB73
:1004200000F013F901208DF800001448006820B195
:1004300000230AAA694605F03FFA05F025F80A9854
:10044000002807D00E494FF080500860BFF34F8F4F
:10045000BFF36F8F0BB000BD300A0020454E5445EE
:10046000522043414E322052582049525148616E29
:10047000646C65722E2E2E200D0A000000000020F4
:1004800004ED00E030B4D0F89C20D0F8A0404FF04C
:10049000FF3352F8212024F81130C2F30742012122
:1004A000831883F8B010D0F8AC3030BC1146184730
:1004B0002DE9F04F9946DDE90A5A4FF0FF3BDDF890
:1004C00024C041E0AB1A5BB20C78002B03DD00BF07
:1004D00004FA03F403E0C3F1000324FA03F4E6B2E0
:1004E00002DDC5F1080301E0C2F10803DCB2844279
:1004F00000D9044605EB0408FF2707FA08F3C5F105
:100500000805EF403B439CF800509E431D40354397
:100510002244D2B28CF80050072A07D90022B9F140
:10052000000F01D05B4600E00123194408F0FF05ED
:10053000072D07D90025BAF1000F01D05B4600E076
:1005400001239C44001BC0B20028BBD1BDE8F08F42
:1005500070470000411C0CD00749B1F900209042BF
:1005600001D1521E0A80054A00EB4000002102F82A
:1005700030104FF0FF307047900000205C4A0020A0
:10058000F0B590F820500468A468012D05D0022D24
:1005900003D0416A41F4802153E014F0406F01D14F
:1005A000E5004BD5C4F30164022C03D9416A41F440
:1005B000000146E00125A5401D608D684FF4C07321
:1005C0009DB1CE6835434E6845EAC605066803EB23
:1005D0000417F5514FF4C275076805EB04150E6951
:1005E0007E51097D012905D009E00E88CD6845EAD4
:1005F0004655EBE701684E5946F480764E51117925
:10060000D2F805504FF4C67641EA0525016806EB9D
:1006100004168D511178D2F801204FF4C47541EAC7
:100620000221026805EB04155151006803EB041127
:10063000425842F0010242500020F0BD416A41F4AC
:10064000001141620120F0BD704730B590F82040A4
:10065000012C05D0022C03D0416A41F480215DE0D9
:100660000468002955D02469A40754D04FF4D874E5
:10067000056804EB01142D5915F004059560056813
:100680002D594ED0ED08556005682C59C4F340042F
:10069000D4604FF4DA74056804EB01142D5905F0A9
:1006A0000F05156105682D59C5F307259561056886
:1006B0002C59240C54614FF4DC72046802EB0112D3
:1006C000A4581C700468A458240A5C700468A458D8
:1006D000240C9C700468A258120EDA704FF4DE727B
:1006E000046802EB0112A4581C710468A458240A7F
:1006F0005C710468A458240C9C710468A258120E02
:10070000DA71006881B1016941F0200101610020C6
:1007100030BDE468A8E7416A41F40011416201205C
:1007200030BD6D0D1560AFE7C16841F02001C160BB
:10073000EDE72DE9F05F0546006800244669D0F832
:1007400004908768D0F80CB0D0F810A0D0F81880CA
:10075000F10748D0F90714D001218160B80703D50B
:10076000284600F0EFF90CE0780702D54FF400645A
:1007700007E0380702D54FF4805402E0284600F025
:10078000E0F9F80516D529684FF480708860B8053F
:1007900003D5284600F0D8F90CE0780502D544F4DA
:1007A000005407E0380502D544F4804402E02846AE
:1007B00000F0C9F9F80316D529684FF48030886035
:1007C000B80303D5284600F0C1F90CE0780302D540
:1007D00044F4004407E0380302D544F4803402E0D6
:1007E000284600F0B2F9300707D55FEACB6004D5A0
:1007F0002968102044F40074C86070074FF008079F
:1008000007D55FEA0B7004D52868C760284600F05A
:1008100093F9B00706D52868C068800702D028463B
:1008200000F08BF9700607D55FEACA6004D5296825
:10083000102044F480640861B00607D55FEA0A70AE
:1008400004D528680761284600F078F9F00606D537
:1008500028680069800702D0284600F070F9B003CC
:1008600008D55FEAC96005D5296810204860284688
:1008700000F066F9F00307D55FEA097004D528682F
:100880004760284600F063F9300446D55FEA4970B6
:1008900040D5F00504D55FEAC87001D044F00104EA
:1008A000B00504D55FEA887001D544F002047005F4
:1008B00004D55FEA487001D544F00404300529D519
:1008C00018F0700F26D008F07000402815D006DC14
:1008D000102809D020280AD0302816D10AE0502844
:1008E0000ED0602811D10EE044F008040DE044F071
:1008F00010040AE044F0200407E044F0400404E05F
:1009000044F0800401E044F480742868816921F097
:1009100070018161296804204860002C05D0686A54
:10092000204368622846FFF78FFEBDE8F09F70B550
:10093000040003D094F8200010B104E0012070BD41
:10094000204600F081F82068016821F00201016072
:1009500000F0E8F90546052604E000F0E3F9401B45
:100960000A2811D8206840688007F6D420680168FA
:1009700041F00101016000F0D5F905460BE000F0FF
:10098000D1F9401B0A2806D9606A40F40030606241
:1009900084F82060D2E720684068C007EFD0207E4E
:1009A0000128206801683DD021F080010160607E4F
:1009B00001282068016838D021F040010160A07E44
:1009C00001282068016833D021F020010160E07E19
:1009D0000128206801682ED041F010010160207FBD
:1009E00001282068016829D021F008010160607F9A
:1009F00001282068016824D021F004010160D4E9B5
:100A000002010843D4E90412114308436168491EF6
:100A100008432168C86100206062012084F820003A
:100A2000002070BD41F08001C0E741F04001C5E702
:100A300041F02001CAE721F01001CFE741F00801A1
:100A4000D4E741F00401D9E7F0B587B0044614219A
:100A50006846FFF75FFC334B3348DFF8C4E01968A2
:100A6000D4F800C0304A032502260927103000249C
:100A7000491CF44525D11960012907D1016841F0CD
:100A800000710160006800F000700590106840F08F
:100A9000080010601068CDE9005600F00800CDE9AC
:100AA000047069462148CDE9024500F063F8002250
:100AB0000521142000F0C2F9142000F0B1F907B0AC
:100AC000F0BDDFF86CE0F445F9D1D0F800C04CF08F
:100AD000806CC0F800C0D0F800C001290CF0806C18
:100AE000CDF814C0196007D1016841F000710160B0
:100AF000006800F000700590106840F0020010607F
:100B0000106802AB00F0020005906020CDE90006FD
:100B100083E8B0006946074800F02CF8CFE70000F2
:100B2000006400401C00002030380240000C0240ED
:100B300000680040000402407047704770477047EB
:100B400070477047704770477047704770477047ED
:100B500090F83510022903D08021416501207047AB
:100B6000052180F835100068016821F0010101605D
:100B7000002070472DE9F84FDFF87CB100224FF0DC
:100B800001084FF0030A4FF00F090BF1040E00BFEC
:100B90000B6808FA02F42340A3426ED14D68022D7F
:100BA00001D0122D0ED1D50800EB850CDCF82050B9
:100BB0005607F70E09FA07F6B5430E69BE402E43F5
:100BC000CCF82060066855000F790AFA05FC07F09A
:100BD000030726EA0C06AF40374307604E68012E34
:100BE00005D0022E03D0112E01D0122E0ED1866810
:100BF000CF6826EA0C06AF40374387604668A643B5
:100C00000C79C4F30014944034434460C6688C6883
:100C100026EA0C06AC403443C4604C68E40065D559
:100C2000364C256845F480452560246822F003058C
:100C300004F480440094324C2E19D6F808489507E5
:100C40002F0F09FA07F5AC432E4DA84201D100251C
:100C500024E02D4DA84201D101251FE02B4DA842D3
:100C600001D102251AE02A4DA84201D1032515E041
:100C7000284DA84202D1042510E037E0264DA842B5
:100C800001D105250AE0254DA84201D1062505E040
:100C9000234DA84201D1072500E00825BD4025438A
:100CA000C6F80858DBF800405D464E689C43F603E2
:100CB00000D51C432C60DEF8004075464E689C430E
:100CC000B60300D51C432C600B4D08352C684E68CC
:100CD0009C43F60200D51C432C60074D0C352C6854
:100CE0004E689C43B60200D51C432C60521C102A4F
:100CF000FFF44EAFBDE8F88F003C0140443802409D
:100D000000300140000002400004024000080240A0
:100D1000000C024000100240001402400018024083
:100D2000001C02400148806870470000200000203D
:100D300002488168027811448160704720000020D9
:100D40000B4810B5016841F400710160016841F47D
:100D500080610160016841F480710160032000F04E
:100D60008DF8002000F006F800F03EF8002010BDDD
:100D7000003C024010B5014688B00022192000F066
:100D80005DF8192000F04CF813480024016841F088
:100D900001010160006805A900F0010006906846A5
:100DA00000F016F900F044F90C494000B0FBF1F1F5
:100DB0000C480B4A491E026040F2E732C0E90324A6
:100DC000C0E9011400F006FB10B1012008B010BD0D
:100DD000044800F01BFBF9E74438024040420F0092
:100DE000000001402C0D00200C4882B0016841F445
:100DF00080410160006800F4804000900748001FB7
:100E0000016841F0805101600068002200F08050CC
:100E100000900F21901E02B000F010B8443802403C
:100E2000002809DB00F01F020121914040098000E9
:100E300000F1E020C0F8001170470000F0B40E4B44
:100E40001B680C46C3F30223C3F10705042D00D928
:100E50000425191D072901D2002300E0DB1E01260D
:100E600006FA05F1491E214099409E40761E164023
:100E70003143F0BC01F07CBA0CED00E0064900F013
:100E8000070208684FF6FF03184040EA0220034AB1
:100E900010430860704700000CED00E00000FA0508
:100EA0002DE9F0470E46050065D0DFF81481D8F82B
:100EB0000000F7B200F00F00B04207D288F80070CF
:100EC000D8F8000000F00F00B04254D128683D4C23
:100ED000810712D5400703D5206840F4E050206018
:100EE0002878000703D5206840F46040206020681F
:100EF000A96820F0F000084320602878C0072DD0B2
:100F0000304968680839012812D0022813D0032814
:100F100011D00968890700292DDA216821F0030121
:100F200001432160FFF7FEFE814641F2883A0EE060
:100F300009688903EFE709688901ECE7FFF7F2FE2A
:100F4000A0EB0901514502D90320BDE8F0872068D4
:100F5000696800F00C00B0EB810FEFD1D8F80010F9
:100F6000404601F00F01B14207D90770006800F058
:100F70000F00B04201D00120E7E72878400705D5EF
:100F80002068E96820F4E0500843206028780007D2
:100F900006D52068296920F4604040EAC10020603D
:100FA00000F056F82168084AC1F30311515CC840AB
:100FB000064908600020FFF7DDFE0020C5E70000BD
:100FC000003C024008380240BC5E00082C000020B3
:100FD0000F2202600C4A136803F003034360136896
:100FE00003F0F0038360136803F4E053C3601268F6
:100FF0004FF4E05303EAD20202610448006800F0B3
:101000000F0008607047000008380240003C0240B2
:101010000448054900680968044AC1F38221515C0B
:10102000C84070472C00002008380240CC5E000801
:101030000448054900680968044AC1F34231515C1B
:10104000C84070472C00002008380240CC5E0008E1
:10105000154810B5006810F00C02144813D014495C
:10106000042A0FD0082A0ED10F4C241F22682368AF
:1010700002F03F025B0207D52068C0F38810A0FB96
:10108000010106E0084610BD2168C1F38811A1FBEB
:1010900000010023FFF7F4F82168C1F30141491C66
:1010A0004900B0FBF1F010BD083802400024F40004
:1010B00040787D012DE9F84F050076D02878DFF8DB
:1010C000F8B2BE4CC00749D0DBF800105846C1F357
:1010D0008101012908D00068C0F3810002280AD1EB
:1010E000201D0068400206D52068800336D5686858
:1010F0000028E2D032E06868B0F5803F10D0B0F54B
:10110000A02F206810D020F480302060206820F4C8
:10111000802020606868A0B1FFF704FE06460CE05E
:10112000206840F48030F4E740F480202060F7E746
:10113000FFF7F8FD801B642873D820688003F7D57B
:101140000CE0FFF7EFFD064605E000BFFFF7EAFD04
:10115000801B6428F0D820688003F7D42878DFF853
:10116000608280074FF000093ED5DBF8001058463A
:1011700011F00C0F09D00068C0F3810002280BD1D8
:101180008D48001F0068400206D42068800715D5EE
:10119000E868012809D111E0E868B8B10120C8F871
:1011A0000000FFF7BFFD064605E002E1FFF7BAFDCC
:1011B000801B0228C0D820688007F7D520682969DD
:1011C00020F0F80040EAC10020600DE0C8F800906F
:1011D000FFF7A8FD064604E0FFF7A4FD801B0228E8
:1011E0001FD820688007F7D42878000722D5724ED0
:1011F000744869696C3671B101210160FFF792FD95
:10120000074604E0FFF78EFDC01B022809D83068AE
:101210008007F7D50EE0C0F80090FFF783FD074682
:1012200005E083E0FFF77EFDC01B02287ED8306812
:101230008007F7D42878400768D5DFF87CA100271D
:101240000AF1380ADAF80000C0000BD4DAF800100E
:1012500041F08051CAF80010DAF80000012700F0D0
:1012600080500090584E3068C00510D4306840F46B
:1012700080703060FFF756FD009005E0FFF752FDEB
:101280000099401A022851D83068C005F6D54A4E58
:10129000A868683601280FD00528306810D020F0E3
:1012A00001003060306820F004003060A868B8B1F8
:1012B000FFF738FD00900FE0306840F00100F4E7E0
:1012C00040F004003060F7E7FFF72CFD0099411A69
:1012D00041F28830814264D830688007F4D50EE04E
:1012E000FFF720FD009007E0FFF71CFD0099411A71
:1012F00041F28830814254D830688007F4D42FB14D
:10130000DAF8001021F08051CAF80010A869C0B3C3
:10131000DBF80010C1F3810102294AD002284846B7
:1013200007D0C8F86000FFF7FDFC00E039E0054693
:101330003AE04746C8F86000FFF7F4FC064604E0D0
:10134000FFF7F0FC801B02282BD820688001F7D41F
:10135000D5E907010843A96A1C4A490802EB014183
:101360006A6A41EA8211084395F82C1040EA01614B
:101370001148001F016001203866FFF7D3FC0546C5
:1013800005E014E0FFF7CEFC401B022809D82068D6
:101390008001F7D50BE000BFFFF7C4FC401B02281B
:1013A00002D90320BDE8F88F20688001F4D4002022
:1013B000F8E70120F6E70000083802400038024054
:1013C00000004742800E4742007000400000FFFFCF
:1013D0007047704710B5040003D094F83D0010B179
:1013E00007E0012010BD002084F83C00204600F0FA
:1013F0000CF8022084F83D00211D206800F020FD3B
:10140000012084F83D00002010BD70470168CA68C3
:1014100042F00102CA600068816801F007010629F4
:1014200003D0016841F0010101600020704770475E
:1014300070B50446006801694FF00005C94389078B
:1014400015D4C168C943890711D4E91E016101207F
:101450002077206880698007204602D0FFF7E7FFE9
:1014600004E000F098F8204600F096F82577206810
:101470000169C943490717D4C168C943490713D44F
:101480006FF004010161022020772068806910F468
:10149000407F204602D0FFF7CAFF04E000F07BF84F
:1014A000204600F079F8257720680169C9430907CB
:1014B00016D4C168C943090712D46FF0080101614D
:1014C000042020772068C0698007204602D0FFF7FB
:1014D000AEFF04E000F05FF8204600F05DF82577ED
:1014E00020680169C943C90617D4C168C943C90640
:1014F00013D46FF010010161082020772068C069C3
:1015000010F4407F204602D0FFF791FF04E000F086
:1015100042F8204600F040F8257720680169C94369
:10152000C90708D1C168C943C90704D1891E01612F
:10153000204600F033F820680169C943090609D440
:10154000C168C943090605D46FF0800101612046D6
:10155000FFF73EFF20680169C943490609D4C16805
:10156000C943490605D46FF040010161204600F0EF
:101570001FF820680169C94389060BD4C168C943B3
:10158000890607D46FF0200101612046BDE8704054
:10159000FFF71FBF70BD7047704700000068034928
:1015A000884201D1FFF7C4BB704700000000014032
:1015B0007047704770B5026804461068D168536977
:1015C00010F00F0F50D003F0010501F49076354371
:1015D0005DD0C20705D0CA0503D5E26B42F0010217
:1015E000E263420705D5DA0703D0E26B42F002025C
:1015F000E263820705D5DA0703D0E26B42F004020A
:10160000E263020705D5DA0703D0E26B42F0080275
:10161000E263E26B002A33D0800604D5880602D547
:10162000204600F0BAFC20684069E16BC0F38010EE
:10163000090700D428B3204600F0A1FC20684169C6
:1016400049061AD5416921F040014161606BA0B1A2
:101650001B490165606BFFF77BFA002810D0606BB7
:10166000016DBDE870400847830610D58B060ED586
:101670002046BDE8704000F090BC2046FFF799FF7F
:1016800070BD2046FFF795FF0020E06370BD0306A4
:1016900006D50B0604D52046BDE8704000F01EBEFE
:1016A0004006F3D54806F1D5D168204621F0400127
:1016B000D160202184F8391000F075F870BD000069
:1016C0006F1F000870B5040004D094F8390000259D
:1016D00010B106E0012070BD84F83850204600F0BB
:1016E00023F8242084F839002068C16821F40051CF
:1016F000C160204600F09CFC2068016921F4904103
:1017000001612068416921F02A0141612068C168B6
:1017100041F40051C160E563202084F8390084F869
:101720003A00002070BD000010B586B004461421B8
:101730006846FEF7EFFD18492068884229D117480E
:10174000016841F010010160006800F01000059090
:1017500012481438016841F00101016000686946CF
:1017600000F0010005904FF4C0600090022001904D
:101770000120029003200390072004900848FFF7FF
:10178000F9F9002205212520FFF758FB2520FFF756
:1017900047FB06B010BD0000001001404438024075
:1017A0000000024070477047FEE700000B480A49FE
:1017B0004FF4602201600421416000218160C0E992
:1017C00003124FF480024261017641768176C17640
:1017D00001774177FFF7ABB800640040300A002082
:1017E0000B480A494FF46022016004214160002146
:1017F0008160C0E903124FF48002426101764176B4
:101800008176C17601774177FFF791B80068004093
:10181000580A0020FEE7000041F201600B1A8142E5
:1018200060D027DCB1F5A05F52D016DC41F217037F
:10183000A1EB0300994245D008DCB1F5805F3FD0B1
:101840006FF48050C14237D1012060E001283BD0C5
:10185000A0F58070E9382FD138E06FF4A050081857
:1018600038D0012838D0022838D0A0F58070FF3851
:1018700022D135E040F20221A3F202208B423DD07A
:1018800010DC40F2FF11A3F2FF108B4230D004DCD9
:10189000012B29D0022B0FD128E001282AD00228C1
:1018A0000AD129E0A0F58070FD3829D0012829D07F
:1018B000022829D0032829D018481060002070473A
:1018C000002024E0022022E0032020E004201EE08B
:1018D00005201CE006201AE0072018E0082016E08A
:1018E000092014E00A2012E00B2010E00C200EE08A
:1018F0000D200CE00E200AE00F2008E0102006E08A
:10190000112004E0122002E0132000E01420002146
:101910001160034901EBC00070470000000002069F
:10192000185F00089F2803D1087808B10148704764
:101930000020704730000906704710B503F076FCB0
:10194000002010BD10B5044601F0ECFA204601F06D
:10195000AFFA002010BD0000D0F87811097869B9FD
:1019600000210A4606E000BFD0F87C3143F8212070
:10197000491CC9B290F875318B42F5D800207047E8
:1019800030B401EBC102846802254FF0FF3305EB50
:101990004205635300238468062505EB4202A352E7
:1019A00030BCC9B203F020BA30B401EBC102846884
:1019B00004254FF0FF3305EB420563538368C9B23A
:1019C00013F8124024F0010403F8124030BC03F075
:1019D0000BBA00002DE9FC41064640694FF4C055A2
:1019E0000489B0690789C4B1DFF83C80BC4214D8CF
:1019F00001AB6A462946304603F0EBF9009838B946
:101A0000019828B1C0F80880C0F80C80C0F8148094
:101A10006D1C641CADB2A4B2E8E73046BDE8FC41E1
:101A2000002100F0A3BE0000091F00082DE9F047C7
:101A30000446406900260589A069B0F8088035BBD6
:101A4000BDE8F087A16806EBC607022000EB470956
:101A500031F90900FEF77EFDA26822F80900A168AD
:101A6000042000EB470931F90900FEF773FDA26875
:101A7000761CF6B222F80900A1680020062201F8BF
:101A80001700A16802EB47026D1C8852ADB24545B4
:101A9000D8D9D5E73EB50446D0F8A4000088F0B107
:101AA00020686946007800F5E060ADF8000001208C
:101AB0008DF8030000208DF8020094F878008DF86E
:101AC0000400D4F8500101F001F894F878309DF842
:101AD0000420BDF8001005A000F03AFC3EBD34F92A
:101AE000A80FFEF737FD20803EBD000050726F64E6
:101AF0007563696E67206865617274626565743AC2
:101B00002025787C2578204E6F6465537461746558
:101B10003A202578200D0A007CB51D46144601ABFD
:101B20006A4603F056F9009931B9019921B100795B
:101B3000A04201D941F8245000987CBD2DE9FC4118
:101B4000054640690F464088002831D007EB8701E1
:101B500005EB0114A96994F82820498810448842AB
:101B600026D86968134E51F83000C06A90F800809A
:101B70004FF0FF30A4F87200852084F82A0094F812
:101B80003200CDE90006238E94F82910284603F090
:101B9000FFF9E662626F2AB1414628469047E06A43
:101BA000B04205D1F9B22846BDE8FC4103F0F8B8CF
:101BB000BDE8FC81000004051FB501EB810100EBCD
:101BC00001114A6B0AB98A6B4A630392012203AB83
:101BD000CDE90032029201F13C0391F83220098EE6
:101BE00000F052FE04B010BD70B501EB810100EBB6
:101BF00001118C6BA018202801D9FF2070BD002096
:101C000006E026181D5C0E44401C86F83C50C0B20D
:101C10009042F6D3886B10448863002070BD0000AA
:101C20002DE9F05F8B46214982460026B1F900007C
:101C30001C4691461C4D401C08E000BFB9F1000F46
:101C400001D02A7852B1761C36B21835864201DCB2
:101C5000082EF3DB4FF0FF30BDE8F09F8846864248
:101C600001D1A8F8000001F0D3F807464FF6FF7144
:101C700020468C4200D30846D8F80420BA4207D93F
:101C8000D21B824204D93A18C8F8042003F0B0FAF3
:101C9000E019C5E903B0C5E901A90A986861012006
:101CA00028703046D8E700005C4A002090000020F1
:101CB000114811210822016000214160C1600261C8
:101CC00081600E4C0175AD2541F2883621780B4BB1
:101CD000491C217008491B1F65701A1DA1F1900055
:101CE000FEF74EFC08B106A000E00BA000F030FBB0
:101CF000304601F02AFAE9E7C00A0020140000206B
:101D000043414E207472616E736D69742065727206
:101D10006F722E0A0000000043414E207472616E03
:101D2000736D6974204F4B2E0A00000003F04CB90C
:101D300010B5502080F31188BFF34F8FBFF36F8F22
:101D400003F054FF18B104494FF0805008600020A0
:101D500080F3118810BD000004ED00E030B593B0B1
:101D600030216846FEF7D6FA14210CA8FEF7D2FA05
:101D700019480025016841F080510160006800F0B9
:101D8000805011901548016841F48041016000685D
:101D9000022400F480401190012003901020049050
:101DA000009406940820CDE90750A820CDE9090445
:101DB00004200B906846FFF77DF90CA90F2081E8FD
:101DC00031004FF4A0500F90E002109005210CA8B4
:101DD000FFF766F813B030BD403802400070004095
:101DE0001048016841F4700101600F48016841F03A
:101DF000010101600C4A00210832116002680B4B9E
:101E00001A400260031D0A4A1A60026822F4802206
:101E1000026005480C3001600249580680390860AC
:101E20007047000088ED00E000380240FFFFF6FE3A
:101E3000103000240148FFF7FBBA00002C0D0020F1
:101E4000F0B50268254C264D264E274F274B4FF004
:101E5000804CA04209D0604507D0A84205D0B042CE
:101E600003D0B84201D0984204D122F0700E4A68E3
:101E700042EA0E02A0421BD0604519D0A84217D0FA
:101E8000B04215D0B84213D0984211D0184DA84294
:101E90000ED0184DA8420BD0174DA84208D0174DB0
:101EA000A84205D0164DA84202D0164DA84203D133
:101EB00022F44075CA682A434D6922F080022A4301
:101EC00002608A68C2620A688262A04201D09842B7
:101ED00001D10969016301214161F0BD00000140A8
:101EE0000004004000080040000C004000040140D5
:101EF00000400140004401400048014000180040FB
:101F0000001C0040002000402DE9F041044690F8FC
:101F10007E0048B3022A03D0032A01D0052A23D128
:101F20006269A088127A00EBC200081AC0F3C705E4
:101F3000A16805EBC506022000EB4607C85FFEF767
:101F400009FBA168C853A168042000EB4607C85FDD
:101F5000FEF700FBA168C853A168002001F8160035
:101F600029462046FFF70CFD0020BDE8F08110B5A2
:101F7000806B0021C185C184FFF71BFB10BD016888
:101F8000CA6822F49072CA6001684A6922F00102AC
:101F90004A61202180F83A10704710B590F83A1045
:101FA000222901D0022010BD8168B1F5805F11D0D7
:101FB0000169002901681FD0496801F07F03816A27
:101FC0004A1C82620B70C18D491E0904090CC1852F
:101FD00018D02BE00269816A002A0268526805D095
:101FE000D2B20A80816A491C8162ECE7C2F308021E
:101FF0000A80816A891CF7E74A68816A4B1C836200
:102000000A70E0E70168CA6822F02002CA6001682D
:10201000CA6822F48072CA6001684A6922F001022B
:102020004A61202180F83A10FFF7BCFB002010BD68
:102030002DE9F041044600680169E26821F440514D
:10204000114301612169A068E26908436169114394
:1020500022680843D16849F20C6399430143D16077
:1020600020684169A26921F4407111434161E2692C
:102070006425B2F5004F9748974922684FF032081F
:102080003FD08A4201D082427CD1FEF7D1FF00EBE3
:10209000C00101EB001061688900B0FBF1F6FEF7AA
:1020A000C7FF00EBC00101EB001061688900B0FBC5
:1020B000F1F0B0FBF5F06FF01801484306EB80013A
:1020C00008EB0110B0FBF5F000F0F006FEF7B0FFF2
:1020D00000EBC00101EB001061688900B0FBF1F07A
:1020E000B0FBF5F006EB0016FEF7A2FF00EBC00117
:1020F00001EB001061688900B0FBF1F7FEF798FF73
:10210000D2E08A4201D082423DD1FEF791FF00EB3E
:10211000C00101EB001061684900B0FBF1F0B0FBB9
:10212000F5F00601FEF784FF00EBC00101EB0010A3
:1021300061684900B0FBF1F7FEF77AFF00EBC001E0
:1021400001EB001061684900B0FBF1F0B0FBF5F065
:102150006FF01801484307EB800108EBC100B0FBAA
:10216000F5F000F0F80006EB4006FEF761FF00EB2B
:10217000C00101EB001061684900B0FBF1F7FEF708
:1021800057FF3CE055E0FEF743FF00EBC00101EBD9
:10219000001061684900B0FBF1F0B0FBF5F00601FA
:1021A000FEF736FF00EBC00101EB0010616849004B
:1021B000B0FBF1F7FEF72CFF00EBC00101EB0010C4
:1021C00061684900B0FBF1F0B0FBF5F06FF0180169
:1021D000484307EB800108EBC100B0FBF5F000F0CD
:1021E000F80006EB4006FEF713FF00EBC00101EB21
:1021F000001061684900B0FBF1F7FEF709FF00EB42
:10220000C00101EB001061684900B0FBF1F0B0FBC8
:10221000F5F06FF01801484307EB800108EBC100AF
:10222000B0FBF5F000F00700216830448860BDE89D
:10223000F081FEF7EDFE00EBC00101EB00106168DC
:102240008900B0FBF1F6FEF7E3FE00EBC00101EB05
:10225000001061688900B0FBF1F0B0FBF5F06FF0A1
:102260001801484306EB800108EB0110B0FBF5F0C4
:1022700000F0F006FEF7CCFE00EBC00101EB001011
:1022800061688900B0FBF1F0B0FBF5F006EB0016D9
:10229000FEF7BEFE00EBC00101EB00106168890093
:1022A000B0FBF1F7FEF7B4FE00EBC00101EB00104C
:1022B00061688900B0FBF1F0B0FBF5F06FF0180138
:1022C000484307EB800108EB0110B0FBF5F000F08C
:1022D0000F00A9E7001401400010014090F83910E8
:1022E000212901D0022070478168B1F5805F016A21
:1022F0000BD04A1C0262026809785160C18C491EE9
:102300000904090CC1840ED017E009880268C1F3E2
:102310000801516001690029016A02D0491C01626B
:10232000ECE7891CFBE70168CA6822F08002CA60FA
:102330000068C16841F04001C160002070470000A2
:102340000148FFF737B90000800A0020FEE7704718
:102350000FB4054B10B503A9044A029800F0A6F883
:1023600010BC5DF814FB0000FF2D00082C0A0020B3
:102370000907090E002804DB00F1E02080F80014B2
:10238000704700F00F0000F1E02080F8141D704746
:1023900002E008C8121F08C1002AFAD1704770472E
:1023A000002001E001C1121F002AFBD1704700008C
:1023B0002DE9FC411C468C46DDE908581746D0F84B
:1023C00054310A9E01AA694660469847009911B1A6
:1023D0000846BDE8FC810179B94201D82448F8E7F4
:1023E00007EB470136B1026812F82120D20701D06D
:1023F0002048EEE75CB10422066802EB8102D5F8C2
:1024000000C0B358634505D91B482B60E1E74FF086
:102410000060DEE7012303EB8101735C88F8003084
:1024200000680821092B865807EB470201EB82015F
:1024300006D0415832462046FDF753FF2E6014E087
:1024400040582A68014602B93246024403E000BF00
:1024500004F8013B401C03780BB19042F8D3411AB9
:102460002960B14201D2002101700020B1E70000D3
:1024700011000906010001060500040570477047B8
:1024800070477047704770477047704710B50446F3
:10249000006A007820B981220021204600F024FE45
:1024A0002046BDE81040052102F050BE2DE9FF4F47
:1024B0008DB09B460F460446002606E025280BD02B
:1024C0005A460F999047641C761C20780028F5D155
:1024D00011B03046BDE8F08F0025A846012298498A
:1024E00000E0054314F8013F203B02FA03F00842E4
:1024F000F7D120782E2817D114F8010F45F00405E4
:102500002A280ED06FF02F022078A0F1300109297F
:102510000AD808EB880102EB410100EB0108641CBA
:10252000F2E757F8048B641C20786C280DD004DC8B
:102530004C2812D06A2811D104E074280DD07A28D2
:102540000CD10AE045F4001507E0617845F48015E8
:10255000814202D1641C05F58015641C2278692A29
:1025600045D008DC002AB3D0582A69D0632A10D09D
:10257000642A08D13BE0702A67D0732A13D0752AE9
:102580005CD0782A5CD010465A460F999047761C4A
:10259000D3E017F8040B8DF8000000208DF801003F
:1025A000E946012003E057F8049B4FF0FF3069072C
:1025B0004FF0000501D40AE06D1C45450DDA854257
:1025C000FADB19F805100029F6D106E06D1C8542EA
:1025D000FCDB19F805100029F8D12E4404E019F8A5
:1025E000010B5A460F9990476D1EF8D2A5E00A20BC
:1025F0000021CDE90801C5F3025002280DD001CF1A
:10260000C117031E71F100030DDA4FF0000CD0EB7F
:102610000C006CEB01012D2308E0FF1D27F00707DC
:10262000F7E80201EDE72B0504D52B238DF82830C0
:1026300001233BE0EB0739D02023F7E70A2000E035
:1026400010200021CDE9080107E01020002145F00D
:102650000405CDE908014FF00808C5F3025002282F
:102660000FD001CF00214FF0000A2B071FD5702A91
:102670000DD0DDE908C38CF0100C5CEA030C0CD023
:1026800015E0FF1D27F00707F7E80201EBE74022FE
:102690008DF828204FF0010A0BE050EA010306D024
:1026A00030238DF828308DF8292002239A46582AA5
:1026B00004D024A20DF120090B9209E026A2F9E72B
:1026C000DDE90823FDF7DCFD0B9B9B5C09F8013D70
:1026D00050EA0102F4D1ADEB090020300890680700
:1026E00001D44FF001080899884502DDA8EB0100EC
:1026F00000E000208046002506E00AA85A46405D1A
:102700000F9990476D1C761C5545F6DB04E0302090
:102710005A460F999047761CB8F10001A8F10108BC
:10272000F5DC05E019F8010B5A460F999047761C25
:102730000899481E08900029F4DC641CC5E60000D6
:102740000928010030313233343536373839616287
:10275000636465660000000030313233343536374B
:102760003839414243444546000000002DE9FE4F00
:1027700004464069002589460689A069078994F8BE
:102780007E0000280ED0002E6AD0A846CDF800802A
:10279000CDF80480CDF8088060E005286ED00B28C5
:1027A00058D0FF20BDE8FE8F606850F836004169C0
:1027B0000968002901DA0B2024E0006AB9F1000F52
:1027C00023D00178E9B3F02925D8A26805EBC5012B
:1027D00012F811305B1CDBB202F811300278934220
:1027E00019D1A268204602F81180CDF80080CDF8FA
:1027F00004806A462946CDF8088000F0BFF800281A
:10280000D9D10520BE42C8D92AE00078FF2829D0B6
:10281000FE2827D01CE00078FC2818D105EBC50A5B
:102820000622A16802EB4A000A182946204600F059
:10283000A5F80028A06810F81A1003D021F00102B2
:1028400002E016E041F0010200F81A20B3E780B17F
:10285000BE4205D86D1C761CEDB2B6B2BE42A3D9FD
:1028600000209FE7A06805EBC50110F81100C00724
:10287000EDE72946204602F0B7FA9CE76A4629466A
:10288000204602F035FB96E72DE9FF4F83B09146D5
:10289000DDE910758246D0F8543101AA69460498E2
:1028A000984704460098002803D12179494503D868
:1028B0002E4807B0BDE8F08F09EB490625B1206826
:1028C00010F82600022811D00121206801EB8601B2
:1028D00010F80180042101EB86014558386848B1A1
:1028E000A84207D0B8F1090F02D03BE02048E0E74A
:1028F000A84237D2DAF82420404606999047009043
:102900000028D6D10820216800EB860B3A6851F8E0
:102910000B000699FDF7E5FCB8F1090F07D13868FF
:10292000A84204D22368002253F80B100A543D60D9
:10293000019850B150F82930494633B10A46214632
:102940005046984700900028B3D1206810F8260020
:10295000400705D5DAF8583150464A460499984759
:102960000020A6E703483D60A3E700001100090628
:102970000200010610000706704770472DE9F04F6E
:102980004369834691461889DBF80420C00000EBB8
:10299000C1045B89A058DB0003EBC1018F184069BB
:1029A000396889B00088D1F808A00026C0F30A0170
:1029B000A9F80010354689F80260002004900590BF
:1029C00006EB46021423396803EB82028A58136827
:1029D000190C13F0FF042ED02B190793402B2AD883
:1029E000A4F1010C012303EBDC0CCDF818C0128814
:1029F000CDE902030DF1200C0DF11808CDE9008C92
:102A0000C2F3072204AB5846FFF7D2FC18B1FF20EF
:102A100009B0BDE8F08F09EBD502121D009200202D
:102A200005F00701CDE90110002320461A4604A94C
:102A3000FDF73EFD079D761C9AF80000F6B2B04205
:102A4000BBD801206D1E00EBD50089F803000020E3
:102A5000DEE730B40A88D3090F2B35D2DFE803F064
:102A60002D083418181818181818181F1F342600A5
:102A7000802A06D090F87B20002A25D030BC00F0B8
:102A80009ABB90F87C1000291ED030BC01F0ACBE7F
:102A900090F87E20002A17D030BC00F05FBC90F880
:102AA0007A20002A10D030BC00F06CBD90F87D2058
:102AB000002A09D030BC00F0DBBB026A1278002A81
:102AC00002D030BC00F088BB30BC704700B589B084
:102AD00008880090002001908A78CDE90202CA7827
:102AE00004928DF8140006AA04E00B181B79135405
:102AF000401CC0B2CB788342F7D808AB6946064881
:102B0000FDF73EFD28B105A0FFF722FC002009B02B
:102B100000BD0120FBE70000300A002043414E20A9
:102B20007472616E736D6974206572726F722E0AB1
:102B3000000000008EB0002000900190029000F094
:102B400051FAA521334802F05BFA334D314833493D
:102B50006860C0F85011002102F0F8FA30A0FFF7C9
:102B6000F7FB3AA0FFF7F4FB44A0FFF7F1FB0022CC
:102B70002821142002F038FE286000281CD048A02C
:102B8000FFF7E6FB50A0FFF7E3FB6E46642203A9C4
:102B9000286802F0EFFE0028F8D055A0FFF7D8FB18
:102BA0000498ADF8000007988DF8020008988DF899
:102BB0000300002003A90CE054A0FFF7C9FB642028
:102BC00002F0E0FCF8E70A18331892F820201A7196
:102BD000401C9DF803208242F5DC9DF80C1055A0A6
:102BE000049AFFF7B5FB002405E03019017956A0DF
:102BF000FFF7AEFB641C9DF80300A042F5DC54A077
:102C0000FFF7A6FB69466868FFF723FF322002F052
:102C1000B9FCBBE77C08002000000020300A00203F
:102C20005374617465204D616368696E65206368E3
:102C3000616E676520746F20496E697469616C69A3
:102C4000736174696F6E2E2E2E0D0A0053746174B9
:102C500065204D616368696E65206368616E6765B4
:102C600020746F2050726F5F6F7065726174696F4E
:102C70006E616C2E2E2E0D0A00000000536C6176E2
:102C8000652053656E64206120426F6F745570201B
:102C90004D6573736167652E2E2E0D0A00000000CE
:102CA00043414E4F70656E205175657565206372A6
:102CB0006561746564207375636365737366756CB1
:102CC0006C792E2E2E0D0A003C3C3C3C3C43414E80
:102CD0004F70656E2054687265616420414C4C20D1
:102CE000434C4541523E3E3E3E3E0D0A0000000030
:102CF0005468726561642067657420612043414EA9
:102D0000207061636B616765200000002121214311
:102D1000414E4F70656E2051756575652063726513
:102D200061746564206661696C65642121210D0A06
:102D30000000000066726F6D2043414E25753A20F9
:102D4000307825787C20000030782578200000003D
:102D50000D0A000010B50446054B002241F20301A4
:102D6000FEF7DAFED4F878110020087010BD0000DC
:102D70005919000870472DE9FE439946DDE90A76A6
:102D800015468846044602AB00F069F850BB012D99
:102D900004D19DF80810204602F002F8022D21D13E
:102DA0009DF8080000EB800004EB0010B0F9720001
:102DB000FDF7D0FB9DF8081001EB810104EB011138
:102DC000A1F872009DF80810852001EB810104EB49
:102DD000011181F82A009DF8080000EB800004EB47
:102DE0000010C662CDE900764B4642462946204691
:102DF00002F0CEF8002800D0FF20BDE8FE8338B5F1
:102E000004468DF8000069460320ABBE204638BD5D
:102E1000044988680968884201D9401A7047081A2D
:102E2000704700009800002000680078704710B5D7
:102E3000002303EB830400EB041494F82A402CB124
:102E40005B1C13F0FF03F4D0FF2010BD137003EBE5
:102E5000830200EB021080F82910002010BD70B52D
:102E6000002404EB840500EB051595F82A606EB18B
:102E7000852E0BD095F828608E4207D195F8295001
:102E8000954203D103B11C70002070BD641C14F086
:102E9000FF04E6D0FF2070BD01EB810100EB0111C2
:102EA000486B08B1896B401A106000207047000021
:102EB000F8B50546184B002241F21701FEF72CFE2B
:102EC000002685F84C61344613E000BFD5F89C001D
:102ED00030F8240003041B0C09D0104A2146284670
:102EE0000096FEF79DFED5F8A01021F81400641C92
:102EF000E4B2D5F898000078A042E7D8D5F8A4004D
:102F00000388002B07D0064A002128460093FEF7CD
:102F100087FEA5F8A800F8BD45190008850400083B
:102F2000951A000870B5054600240BE0D5F8A000FE
:102F300030F91400FDF70EFBD5F8A01021F81400AD
:102F4000641CE4B2D5F898000078A042EED835F9B8
:102F5000A80FFDF7FFFA288070BD00002DE9F843A7
:102F60001746DDE90896002501EB8102984600EB43
:102F70000214022E2DD0032E2BD0042E29D0052E84
:102F800027D0B4F97200FDF7E5FA00BFA4F872008B
:102F900084F82870A4F8308084F8329084F82A608D
:102FA00084F82B506563A56384F85C5084F85D5009
:102FB00084F85E50256684F8645084F8655084F87F
:102FC000665084F8675084F8705000206567BDE84B
:102FD000F88340F6B833024A0095FEF721FED5E7A4
:102FE0003D1B0008024800218160416070470000DD
:102FF0009800002030B501EB810100EB01118C6BD2
:10300000A018202802D84D6BA84201D9FF2030BD5E
:10301000002006E025180D4495F83C501D54401C36
:10302000C0B29042F6D3886B10448863002030BD54
:1030300090B0FDF785FEFEF791FE2348002401685D
:1030400041F001010160016801F001010E91016888
:1030500041F008010160016801F008010E9101686A
:1030600041F002010160006800F002000E90FEF7DE
:103070009DFBFEF7B5FB1648144901604FF416514D
:10308000C0E901140C21C460C0E904418461C46139
:10309000FEF718FB1C220F496846FDF722F90021B4
:1030A000684600F05EF80C4C0A491C2220601C3176
:1030B00007A8FDF716F9002107A800F052F8606094
:1030C00000F04AF8FEE700003038024000100140EE
:1030D000800A0020845E00080800002001460020CD
:1030E000842900D0C81C70470EB50023ADF800300D
:1030F0008DF802308DF8042002238DF805108DF82C
:103100000330D0F850016946FFF7E0FC0EBD10B562
:1031100086B0202204AC04920094012205ABCDE9D4
:10312000013201EB810100EB0114039204F13C0335
:1031300094F83220218EFFF73BF9002803D1049840
:1031400060630020A06306B010BD10B500B9012077
:1031500002F018FA002010BD10B502F05FFA00204E
:1031600010BD7FB50D4604464169B0F9080081B134
:10317000A16971B1FFF7B2FFD4E905128DE807002C
:10318000D4E900102B46226902F0F7FC039004B04A
:1031900070BDFFF7A3FF03A9CDE90001208A2B46EC
:1031A00082B2D4E9001002F0BBFC012801D000205B
:1031B000EDE70398EBE730B4CA78082A0AD10A7819
:1031C000D0F8A84102F07F058A888B792946A44669
:1031D00030BC604730BC704770B5044690F878004A
:1031E0007F2803D0052801D004283FD14A791AB19D
:1031F00023681B789A4239D10979802925D009DCC6
:1032000001291CD0022931D17F2801D005282DD1D8
:10321000042126E081291ED0822927D12046FFF7EC
:1032200003FED4F89410054609B12046884721686A
:10323000FF2008702946204601F0E2FE10E07F28BA
:1032400001D0042812D105210BE0052801D0042863
:103250000CD17F2105E0D4F8901009B120468847B1
:1032600000212046BDE8704001F070BF70BD000035
:103270002DE9FE43044608784FF0000800F07F0671
:103280008878012813D00879A51900F07F0795F8F0
:10329000B000B84207D0D4F848313A46314620460B
:1032A000984785F8B07095F8B00028B329E02068F9
:1032B0000078B0421ED100F5E060ADF800000122B8
:1032C0008DF803208DF8028094F878108DF80410A2
:1032D00094F84C31404633B141F080018DF8041030
:1032E00084F84C0101E084F84C216946D4F850017F
:1032F000FFF7ECFBBDE8FE83D4F8442131462046BD
:10330000904795F8B0000F28F4D000251DE000BFCD
:10331000D4F89C0050F82510C1F30740864212D122
:10332000D4F8A0008FB230F91500FDF713F93B4631
:10333000094A29462046CDF80080FEF771FCD4F8F2
:10334000A01021F815006D1CEDB2D4F8980000789B
:10335000A842DDD8CEE70000850400082DE9F04F33
:10336000894604460223002199F8020091B00D46D7
:1033700010B101287DD09CE06769A269B888928865
:1033800020B996E0022B04D0042B0FD09042F9D93B
:103390008FE0B9F80060636853F830C0DCF814C0FF
:1033A000BCF800C0B4450CD1904210D8FF886268C8
:1033B000F80000EBC50B002652F80B00D0F808808F
:1033C0004AE06D1C401C80B2EDB29042E4D970E03E
:1033D000002209920A9263684FF0140C53F80B0014
:1033E00006EB46030CEB8303C0585FEA000A64D087
:1033F0009AF8000010F0FF0005902BD008440F90C1
:1034000099F80330B0EBC30F24D8002009AACDE906
:10341000002001F0070209EBD10103460290091DCB
:103420000598FDF745F805990120491E00EBE101DB
:103430000E910EAA00210092CDE90110DAF80000E9
:1034400009ABC0F30722010C2046FFF71DFAA0BB11
:103450000F98C1B2761CF6B298F80000B042B7D807
:10346000E06830B3616851F83710496C0E8806B3D4
:1034700000E00FE030F91500FDF76CF80020009037
:103480003346294620462269FEF7CAFBE16821F847
:1034900015000EE06069A26901210089128930B926
:1034A00007E001290AD004291BD005293CD090420D
:1034B000F7D9002011B0BDE8F08F3BE0B9F800303B
:1034C000D4F8041051F83060766936889E4201D1F4
:1034D000042116E06D1C401C80B2EDB29042F1D97F
:1034E000E7E7616851F83010096A0B78FD2B07D0C7
:1034F000D9B2FC2908D0FF291ED0FE291CD019E022
:1035000005219042CFD9D4E7A16805EBC50311F896
:103510001360F60706D0062000EB43000144D4F800
:1035200050012CE09042C4D86A4629462046FFF755
:1035300025FA08B3FF20BDE7A16805EBC506022008
:1035400000EB4607C85FFDF705F8A168C853A168FE
:10355000042000EB4607C85FFCF7FCFFA168C853D6
:10356000A06810F8161021F0010100F81610294685
:103570002046FEF705FA9CE76946D4F85001FFF7AC
:10358000A5FA96E72DE9F04F8DB0044600200C9087
:103590006569A3690E4628881A880021D8B14FF0C2
:1035A000040C904217D867680CEBC00817F8088025
:1035B000B8F1010F75D957F83070B6F800807F69FF
:1035C0003F68474502D10127039121E0491C401C77
:1035D000C9B280B2E5E768885A880021002860D027
:1035E000042390425DD8656803EBC007EF5D032FAD
:1035F00057D955F8305037882D6A2D68BD4212D101
:1036000003916168022751F83000C06A00780C907D
:10361000F07800254FF00069082809D0CDE900595D
:1036200000233A4690E0491C401CC9B280B2D8E75A
:1036300002AB3A4620460399FFF711FCC8B9012FA7
:1036400002D0022F0BD014E09DF8081001EB81018D
:1036500004EB011191F82A1004291DD009E09DF80E
:10366000081001EB810104EB011191F82A100529E2
:1036700012D031794909DFF84484DFF844A406F117
:1036800008020DF1180B0B92072961D2DFE801F057
:103690000AFEFDFC86FBFA00317980297ED00621E6
:1036A000E9E755E0012F02D0002878D04AE0E0BBDE
:1036B0009DF8080000EB800004EB001090F82A1041
:1036C00002293FD1B0F97200411C1AD0FCF742FF29
:1036D0009DF8081040F6B83301EB810104EB0111AD
:1036E000F84AA1F8720000959DF808102046FEF7F0
:1036F00097FA9DF8081001EB810104EB0111A1F884
:1037000072009DF8080000EB800004EB0010018EB1
:10371000059190F8328090F82B103079C0F30012A8
:1037200091427CD1C0F3420000E00BE0C0F10702FF
:10373000731D09929DF808102046FEF755FA0028DF
:103740006ED10BE00023E2E320460399FFF713FB61
:103750000DB0FF20BDE8F08F059BFDE39DF808004C
:10376000202100EB800004EB001090F82B0041EAD0
:1037700000108DF81800012059460D54401C0828EF
:10378000FBD306AB39462046039A01F0C5FB9DF8F2
:10379000080000EB800004EB001001E090E316E06D
:1037A00090F82B1071B1002180F82B103079C007F0
:1037B0006DD09DF808102046FEF7FEF920B1CDE946
:1037C0000080C9E70121EFE79DF80810FDE39DF8AF
:1037D000080000EB800004EB001090F82A10032989
:1037E000B0D1B0F97200411C1DD0FCF7B3FE9DF8BA
:1037F000081040F6B83301EB810104EB0111B14A26
:10380000A1F8720000959DF808102046FEF708FA0E
:103810009DF8081001EB810104EB011101E091E03A
:1038200091E0A1F872009DF8080000EB800004EB25
:103830000010018E059190F8328090F82B103079AD
:10384000C0F3001291427DD1C0F34200C0F10702E3
:10385000731D09929DF808102046FEF7C5F900284F
:1038600071D19DF8080000EB800004EB001191F885
:103870002B0000B35FF0000081F82B003179C907FD
:103880001BD005E0FEE357E321E225E121E01EE342
:103890009DF8080000EB800004EB0010B0F9720006
:1038A000FCF758FE9DF8081001EB810104EB0111B3
:1038B000A1F87200DFE10120DEE7602141EA00109B
:1038C0008DF81800012059460D54401C0828FBD3E0
:1038D00052E2012F62D000287FF4E8AE9DF8080084
:1038E00000EB800004EB001090F82A100229F3D1BD
:1038F000B0F97200411C1AD0FCF72CFE9DF808109C
:1039000040F6B83301EB810104EB01116D4AA1F8D7
:10391000720000959DF808102046FEF781F99DF889
:10392000081001EB810104EB0111A1F872009DF870
:10393000081001EB810004EB0010028E059290F854
:10394000328001E085E098E0327990F82B00C2F3F4
:10395000001290427DD109AA2046FFF79DFA0998EE
:1039600000288ED007289DF8080000EB800004EBAB
:10397000001191F82B006DD9E8B3002081F82B00DD
:1039800000018DF818009DF808100BF101030722C3
:103990002046FFF72FFB00286FD1EDE1B6F80510A8
:1039A000059196F807A040B102AA39462046FFF7D4
:1039B0003EFA28B1CDE900A8CEE6CDE900A8CBE6D5
:1039C0000220CDE900A09DF808102046059B039A2F
:1039D000FFF7C4FA30794108C90724D09DF80810D0
:1039E000C0F3810001EB8101C0F1040004EB01117F
:1039F0000990486300E045E09DF8081020460B9BC5
:103A0000099AFEF7F1F808BB9DF808102046FEF76A
:103A1000D3F810B1CDE900A09EE69DF8081020462D
:103A200001F0BEF917E0C00715D0307A717AF27A4A
:103A300000EB0120B17A090401EB026142180992FE
:103A40009DF80810204601F075FB20B1CDE900A9D2
:103A500082E6CEE118E060208DF8180005988DF818
:103A60001900000A8DF81A008DF81BA00420594691
:103A70000D54401C0828FBD37EE199E020460C99A8
:103A8000904724E2012079E7A8B1002081F82B00BB
:103A9000099A0001C2F1070340EA4300401C8DF877
:103AA00018009DF808100BF101032046FFF7A2FA59
:103AB00000287DD108E00120E8E70000210000088F
:103AC000000003053D1B00085946099800E00D540D
:103AD000401C0828FBD34FE1012F46D000287FF47B
:103AE000E5AD9DF8080000EB800004EB001090F8B5
:103AF0002A100329F3D1B0F97200411C1AD0FCF747
:103B000029FD9DF8081040F6B83301EB810104EB64
:103B10000111FF4AA1F8720000959DF80810204697
:103B2000FEF77EF89DF8081001EB810104EB01110E
:103B3000A1F872009DF8080000EB800004EB001073
:103B4000B0F830A090F8328030794108C9076ED0C3
:103B5000C0F38100C0F1040209929DF808102046CC
:103B60000B9BFEF741F8E0BB6BE0B6F80510F67969
:103B70008A4650B102AA39462046FFF758F930B1BB
:103B80005346CDE900683A46DEE50B46F9E70320E7
:103B9000CDE9006053469DF808102046039AFFF7D0
:103BA000DDF99DF808102046FFF7B1FA30B100E0CA
:103BB0005BE1CDE9006053463A46C5E509AA9DF8A8
:103BC00008102046FFF768F9099A042A16D94120FF
:103BD0008DF818008DF819A04FEA1A208DF81A00F8
:103BE00000E065E08DF81C20100A8DF81D00100C17
:103BF0008DF81E008DF81B60100E1DE2C2F104004E
:103C0000432141EA80008DF818008DF819A04FEA91
:103C10001A208DF81A008DF81B600BF104039DF833
:103C200008102046FFF7E6F910B153463CE12CE0BE
:103C300009985946001D01E00D54401C0828FBD38B
:103C40001DE19DF8080000EB800004EB0010B0F9C6
:103C50007200FCF77FFC9DF8081001EB810104EB7A
:103C60000111A1F872009DF80810099801EB81017B
:103C700004EB011148639DF80810012001EB81015C
:103C800004EB011181F82A004BE1C00715D0307A0E
:103C9000717AF27A00EB0120B17A090401EB02613A
:103CA000421809929DF80810204601F043FA20B10D
:103CB00053463A46CDE9008946E560208DF8180064
:103CC000012059460D54401C0828FBD354E0012F15
:103CD00053D000287FF4EAAC9DF8080000EB800088
:103CE00004EB001090F82A100229F3D1B0F9720009
:103CF000411C1AD0FCF72EFC9DF8081040F6B83392
:103D000001EB810104EB0111814AA1F872000095D9
:103D10009DF808102046FDF783FF9DF8081001EB81
:103D2000810104EB0111A1F872009DF8081009AAA5
:103D300001EB810004EB0010B0F8308090F83260A5
:103D40002046FFF7A9F8099A002A3FF49AAD9DF89A
:103D50000810072A01EB810004EB001090F82B00FB
:103D60004FEA001071D98DF818000BF101030722FA
:103D70002046FFF73FF9E8BBACE20028AAD19DF846
:103D8000080000EB800004EB001090F82A100329D3
:103D9000A0D1B0F97200411C1AD0FCF7DBFB9DF8F2
:103DA000081040F6B83301EB810104EB0111584AC9
:103DB000A1F8720000959DF808102046FDF730FF2D
:103DC0009DF8081001EB810104EB0111A1F87200CC
:103DD0009DF8081001EB810004EB0010028E0592A3
:103DE00090F83280327990F82B00C2F300129042A2
:103DF00004D000E057E0CDE9008AADE409AA2046EE
:103E0000FFF74AF89DF80810099A01EB810004EBCE
:103E10000010072A90F82B004FEA001018D98DF8EF
:103E200018000BF1010307222046FFF7E3F8E0B981
:103E30009DF8080000EB800004EB001090F82B10B8
:103E400021B1002180F82B1044E21FE00121F9E7A5
:103E5000C2F1070340EA4300401C8DF818000BF143
:103E600001032046FFF7C6F810B1CDE9008973E4DD
:103E70005946099800E00D54401C0828FBD306ABB6
:103E800039462046039A01F047F89DE4C2F1070342
:103E900040EA4300401C8DF818000BF10103204656
:103EA000FFF7A8F820B14346CDE900693A464BE454
:103EB0005946099800E00D54401C0828FBD3FAE34A
:103EC000F17AB568012F61F31F6501D018B151E295
:103ED0000028DAD04EE29DF8080000EB800004EBE9
:103EE0000010B0F97200FCF735FB9DF8081001EBEB
:103EF000810104EB0111A1F872009DF808108020E7
:103F000001EB810104EB011181F82A0002E041E09C
:103F10003D1B00089DF8080000EB800004EB00103A
:103F2000C5629DF8080000EB800004EB0010426FB2
:103F3000002A7FF4A3AD1DE23179012F01F0030ABD
:103F40000DD0BAF1000F7AD0BAF1020F77D0BAF1E2
:103F5000010F3FF496AC00E078E3FFF7F3BBBAF152
:103F6000000F09D0BAF1010F6CD0BAF1020F79D06D
:103F7000BAF1030F76D0FDE1B6F80510F579894660
:103F800038B102AA39462046FEF751FF30B14B4600
:103F900000E00B46CDE900583A46F5E50520CDE9AD
:103FA00000504B469DF808102046039AFEF7D6FFB6
:103FB0009DF80810307901EB810104EB0111C0F389
:103FC000800081F85C00307A00E047E09DF808103E
:103FD00001EB810104EB011181F85D009DF80810EF
:103FE0002046FFF794F820B1CDE900504B463A4601
:103FF000CAE509AA9DF808102046FEF74DFF9DF876
:104000000810099801EB810104EB01110866C22038
:104010008DF818008DF819904FEA19208DF81A00C4
:1040200009988DF81C00010A8DF81D10010C8DF8FF
:104030001B508DF81E10000E8DF81F003BE3D2E0E0
:1040400000E00FE0002888D19DF8081001EB810006
:1040500004EB001090F82A000528F4D1204600F067
:104060009FFE8CE30028EED19DF8080000EB800055
:1040700004EB001090F82A100529E4D1B0F9720081
:10408000411C00E0A0E11AD0FCF764FA9DF808108A
:1040900040F6B83301EB810104EB0111FF4AA1F8AE
:1040A000720000959DF808102046FDF7B9FD9DF8B7
:1040B000081001EB810104EB0111A1F872009DF8D9
:1040C0000800BAF1020F00EB800004EB0010018E33
:1040D000059190F8321008913BD1B17980F85D10CC
:1040E000707909AA00F07F039DF808102046FEF7BA
:1040F000D3FE0998B8B99DF8080000EB800004EBE6
:10410000001090F8651099420DD190F86610C1200A
:1041100040EA81008DF81800012059460D54401CDA
:104120000828FBD3C7E29DF80800C3EBC30200EBED
:10413000800004EB001191F86400104488639DF83E
:10414000081001EB810104EB0111496B88423FF635
:1041500004AF9DF80800012600EB800004EB00107E
:1041600090F8381080F864101EE000BF80F8656099
:1041700009AA9DF808102046FEF78EFE0998072828
:104180001DD98DF818600BF1010307229DF8081066
:104190002046FEF72FFFE0BB06AB39462046039AC8
:1041A00000F0BAFE761CF6B29DF8080000EB800025
:1041B00004EB001090F85D10B142D7D2DFE246F078
:1041C00080008DF818005E46731C9DF8081020468C
:1041D000099AFEF70FFFE0B9099800E03554401C3A
:1041E0000828FBD3DEE000287FF4B7AE9DF8080076
:1041F00000EB800004EB001090F82A100429F3D1A2
:10420000B0F97200411C1CD0FCF7A4F99DF808100D
:1042100000E099E001EB810104EB011140F6B833B5
:10422000A1F872009D4A00959DF808102046FDF700
:10423000F7FC9DF8081001EB810104EB0111A1F8D6
:104240007200BAF1000F14D09DF80810B07901EB9C
:10425000810104EB011109AA81F85D0070799DF8D4
:10426000081000F07F032046FEF716FE0998D0B133
:1042700031E09DF8080000EB800004EB0010018E97
:10428000059190F8321008913179C1F3800180F8DE
:104290005C109DF80800317A00EB800004EB001000
:1042A00080F85D102DE09DF8080000EB800004EB25
:1042B000001090F8651099420DD190F86610C12059
:1042C00040EA81008DF81800012059460D54401C29
:1042D0000828FBD3EFE19DF80800C3EBC30200EB15
:1042E000800004EB001090F86410114481639DF885
:1042F000080000EB800004EB0010406B81423FF6A9
:104300002CAE9DF80800012600EB800004EB0010A5
:1043100090F8381080F8641022E000BF80F86560E3
:1043200009AA9DF808102046FEF7B6FD099807284F
:1043300021D98DF818600BF1010307229DF80810B0
:104340002046FEF757FE18B10899CDE9001954E54B
:1043500006AB39462046039A00F0DEFD761CF6B225
:104360009DF8080000EB800004EB001090F85D1051
:10437000B142D3D203E246F080008DF818005E46C9
:10438000731C9DF808102046099AFEF733FE18B1F9
:104390000898CDE9000930E5099800E03554401C43
:1043A0000828FBD306AB39462046039A00F0B4FD3B
:1043B0009DF80810099801EB810104EB0111C0F18F
:1043C000070081F86600DAE14FF0100A012F35D0BE
:1043D00000287FF4C2AD9DF8080000EB800004EBDC
:1043E0000010B0F97200411C1AD0FCF7B3F89DF828
:1043F000081040F6B83301EB810104EB0111274AA4
:10440000A1F8720000959DF808102046FDF708FC01
:104410009DF8081001EB810104EB0111A1F8720075
:104420009DF8081001EB810004EB001393F867007E
:1044300098B301287DD002287CD0A0E180B33079E8
:1044400010F0010FC5D1B6F805B096F8079002AA92
:1044500039462046FEF7EBFC20B1CDE900985B46DB
:104460003A4629E40420CDE900905B469DF8081007
:104470002046039AFEF772FD9DF80810012001EB1B
:10448000810104EB011181F8670030799DF8081073
:10449000C0F3800001EB810103E0DEE03D1B00087A
:1044A0002BE004EB011181F85C003079800710D516
:1044B000307A717AF27A00EB0120B17A090401EBCB
:1044C000026108449DF8081001EB810104EB011121
:1044D0000866A0208DF818008DF81CA08DF819B082
:1044E0004FEA1B208DF81F508DF81A008DF81E50D2
:1044F0008DF81B908DF81D50DDE09DF8080000EB55
:10450000800004EB001090F86710012902D0022906
:104510003CD034E1B0F97200411C1DD0FCF71AF810
:104520009DF8081001EB810104EB0111A1F8720064
:1045300001E0C7E027E140F6B833AA4A00959DF8AC
:1045400008102046FDF76CFB9DF8081001EB810177
:1045500004EB0111A1F87200307900F07F08000629
:104560009DF8080000EB800004EB001090F8651047
:1045700001F1010105D541456DD1022180F8671097
:10458000AEE0414568D180F86580E2E03179C90745
:104590003FF4E3ACB0F97200411C1AD0FBF7DAFF2C
:1045A0009DF8081040F6B83301EB810104EB0111CE
:1045B0008C4AA1F8720000959DF808102046FDF77E
:1045C0002FFB9DF8081001EB810104EB0111A1F80C
:1045D00072009DF80810307901EB810204EB0213A0
:1045E000C0F38200C0F1070220466933FDF7FCFAF0
:1045F00080BB9DF8080000EB800004EB0010016E0A
:1046000011B1826B91427DD1A1208DF8180001205B
:1046100059460D54401C0828FBD306AB39462046AA
:10462000039A00F079FC9DF808102046FDF7C4FAC3
:1046300000283FF42AAC9DF8081001EB810104EB3F
:10464000011191F83220CDE900200B8E00E0038E9D
:104650003A462CE485E057E08EE03079C00730D14F
:10466000012083F867009DF80810307901EB810183
:1046700004EB0111C0F3800081F85C003079800701
:1046800010D5307A717AF27A00EB0120B17A090400
:1046900001EB026108449DF8081001EB810104EB75
:1046A00001110866A3208DF81800012059460D5409
:1046B000401C0828FBD306AB39462046039A00F07D
:1046C0002BFC5CE0307900F07F08000693F8650071
:1046D00000F1010039D5404516D1022083F867006A
:1046E0009DF8081001EB810104EB011181F8658050
:1046F0009DF80800716800EB800004EB00108166F3
:10470000B16800E058E0C166A2208DF818009DF85D
:10471000080006AB00EB800004EB0010394690F86F
:1047200065008DF819008DF81AA007958DF81B50BB
:104730002046039A00F0F0FB9DF8080000EB800093
:1047400004EB001080F8655019E0404514D183F85F
:104750006580731D07229DF808102046FDF744FA76
:1047600050B19DF8080000EB800004EB001090F8B9
:104770003220CDE900296AE7B8F1100FC4D00DB09E
:104780000020BDE8F08F3079C2073EF4DBAFC0F304
:104790008200C0F1070220466933FDF725FA0028A0
:1047A000DFD19DF8080000EB800004EB0010016EE3
:1047B00039B1826B914204D090F83220CDE90028C3
:1047C00045E7A1208DF81800012059460D54401CE2
:1047D0000828FBD306AB39462046039A00F09CFB21
:1047E000FFF74FB83D1B000870B5D0F83C110446E8
:1047F000884794F87E00002809D001212046FDF763
:10480000B5FF0546D4F8401120468847284670BDBC
:104810002DE9F041184C0F46054666692068001DD9
:1048200000F0C3FD38B9206890F82C1001208840B2
:10483000A1698143A161681C07D137B12168BDE836
:10484000F0410E48091D00F0F3BD20683544B54223
:104850004560216805D2A068BDE8F041091D00F05F
:10486000CFBD6068091D00F0CBFD206B854200D2F2
:104870002563BDE8F081000030000020480E0020D4
:104880002DE9F041054600F0DFFD2E4C2069401C6B
:10489000206120682C4F10B1E06940B32DE0256005
:1048A0002069012829D1002606EB860007EB80004D
:1048B00000F098FD761C072EF6D323488C3000F0CC
:1048C00091FD2148A03000F08DFD1F48B43000F06C
:1048D00089FD1D48C83000F085FD1B48DC3000F024
:1048E00081FD19488C3060601430A06005E02068BC
:1048F000E96AC06A884200D82560E06A401CE0622C
:10490000E96A0120A26988401043A06101EB81009F
:1049100007EB8000291D00F08BFD00F0B5FDE0697C
:1049200000280CD02068E96AC06A884207D207498B
:104930004FF080500860BFF34F8FBFF36F8FBDE81B
:10494000F0810000300000206C0D002004ED00E03C
:1049500030B4026C0B46002A0BD0C1681144C16010
:104960004468A14201D30168C16030BC1846FBF71E
:10497000B8BC30BC70472DE9F041856B1746044642
:104980000026026C82B1C7B1E068FBF7AAFCE168BF
:10499000206C091AE1602268914202D26168081A0B
:1049A000E060022F16D017E02068A8B9606801F017
:1049B00081F90646002060600EE0A068FBF791FCDC
:1049C000216CA0680844A0606168884204D3206814
:1049D000A06001E005B16D1E6D1CA5633046BDE809
:1049E000F08110B5044690F8510058B101280CD060
:1049F00002280FD0502080F31188BFF34F8FBFF3F0
:104A00006F8FFEE7206B00F053FD2046BDE810409D
:104A100000F04EBD10BD000010484FF47051420729
:104A200006D0C01D0D4920F00700411AC1F5705194
:104A30000B4A00230144C2E900030839103A21F06F
:104A4000070111604B600B600B1AC0E90013936003
:104A50004FF000405360D060704700005C0E0020B3
:104A60007C000020144E154CA6F1C8074FF080586A
:104A7000DFF84C9012E000BF00F0E6FCF068C5687B
:104A8000281D00F092FC2069401E2061E068401E55
:104A9000E06000F0F9FC2846FFF7A3FFE06800287B
:104AA000EAD138680128F9D9C9F80080BFF34F8FDF
:104AB000BFF36F8FF2E70000340E002030000020BB
:104AC00004ED00E00346009829B10260C0E90F310F
:104AD000012100F0ADBE0060F8E72DE9F0479A46ED
:104AE000DDE9098481466FF00303206B03EB82024A
:104AF0001044089D20F00706700707D0502080F36F
:104B00001188BFF34F8FBFF36F8FFEE723180A5C46
:104B100083F834200A5C12B1401C1028F6D3002719
:104B200084F84370072D00D30625E562C4E91157C8
:104B3000201D00F062FC04F1180000F05EFC24610E
:104B4000C5F107006462A061E76484F850705246C2
:104B50004946304600F002F92060B8F1000F01D05C
:104B6000C8F80040BDE8F08730B5114900E01146B3
:104B70000A688242FBD34B685C18844203D14068C8
:104B800018444860084643681C18944209D1084CF0
:104B9000103C2468A24209D052681A4442600A6854
:104BA00012680260814200D0086030BD0460F9E7FD
:104BB0007C00002010B5044600F046FCA06B28B134
:104BC0005FF0000400F060FC204610BD0124F9E70E
:104BD00006484168096829B14168C968C9684968D7
:104BE000016370474FF0FF31FAE70000300000200A
:104BF00008484068401C4FF0500080F3118804D0F2
:104C0000BFF34F8FBFF36F8FFEE7BFF34F8FBFF33D
:104C10006F8FFEE7840000202DE9F041044600F08C
:104C200013FC94F9455004F1240609E0606A48B188
:104C3000304601F08BF808B100F0D2FC6D1E6DB269
:104C4000002DF3DC4FF0FF3684F8456000F01CFCCB
:104C500000F0FAFB94F9445004F1100709E02069D0
:104C600048B1384601F072F808B100F0B9FC6D1E89
:104C70006DB2002DF3DC84F84460BDE8F04100F033
:104C800003BC00002DE9F0410546002700F0FCFCC4
:104C9000314E306808B9FFF7BFFEF06805424BD1CE
:104CA000C5B3083568070ED005F00700C0F108004D
:104CB0000544680707D0502080F31188BFF34F8F59
:104CC000BFF36F8FFEE72DB37068854234D822485A
:104CD000103001460C6801E020460C466168A9428C
:104CE00002D221680029F7D131688C4224D00768AC
:104CF0002168016060680837411B10290FD96019CD
:104D0000420708D0502080F31188BFF34F8FBFF3C4
:104D10006F8FFEE710E041606560FFF725FF616877
:104D20007068401A7060B268904200D2B060F0685B
:104D300001430020C4E9000101F042F8780707D0E0
:104D4000502080F31188BFF34F8FBFF36F8FFEE7C2
:104D50003846BDE8F08100006C00002010B5031F4C
:104D60004FF080741C601B1F21F001011960191F96
:104D7000044B0B6014390A60091F6FF002024438BB
:104D80000A6010BDF14B000870B5054600242146AD
:104D9000284600F005F8641C14F0FF04F7D070BD3D
:104DA0007CB500240D460646009423462246019415
:104DB000FEF7D4F805EB8500002206EB0010811801
:104DC000521C81F83C40202AF9D380F82940C46263
:104DD0007CBDF0B415460E46D0F854412946304605
:104DE000A446F0BC1A4660472DE9FF47044690F8F8
:104DF0007E008946C8B1A16809EBC90511F8150004
:104E0000C00712D160694FF0000801AA0189CDF8EE
:104E1000048001EB090086B2CDF80880494620469F
:104E2000CDF80C80FDF7AAFD18B1002004B0BDE854
:104E3000F087A068062101EB4501415ABDF8042026
:104E4000914211D1092101EB45019DF80720415CF8
:104E5000914209D10A2101EB45010844082202A927
:104E6000FBF763FA0028E1D0606850F83600416C27
:104E7000C06A0F88068897B1A168022000EB450A36
:104E800031F90A00FBF766FB3B46174A49462046C4
:104E9000CDF80080FCF7C4FEA26822F80A00E6B153
:104EA000A168042000EB4507C85FFBF753FB6420B3
:104EB00046434FF47A70B6FBF0F30C4A494620465D
:104EC000CDF80080FCF7ACFEA168C853A06810F8CC
:104ED000151041F0010100F8151001AA49462046BD
:104EE00000F006F80120A1E781190008A9190008BF
:104EF00030B401EBC1010624836804EB410119447D
:104F000013680B6053684B6093688B60D0F8500156
:104F100030BC1146FDF7DABD3EB590F87840052C5F
:104F200001D07F2C09D10129416908D0498821B1DC
:104F300011448269528891420ED9FF203EBD0988F2
:104F40000029FAD01144826912889142F5D842684A
:104F500052F83110096A03E0426852F83110496989
:104F60006A460988ADF8001000218DF8021008216A
:104F70008DF80310002155185C5C491CC9B22C71D6
:104F80000829F8D3D0F850011146FDF79FFD3EBD2A
:104F90007CB58026DDE906548DF800608DF801307F
:104FA0001B0A8DF802308DF80440230A8DF8053075
:104FB000230C8DF80630230E8DF807308DF8035042
:104FC0006B46FFF7A9FF7CBD70B5054600F006F8FB
:104FD00004462846FFF708FC204670BD0EB5D0F801
:104FE00034110988ADF8001000218DF802108DF8F9
:104FF0000310D0F850016946FDF768FD0EBD0000B2
:105000002DE9FF474269002912887DD07F297BD88E
:10501000FAB14368046853F8323024785B6904F5C8
:10502000C0651E68AE4201D0FF2C02D101F5C064FC
:105030001C60436853F83220136A02681D681278B6
:1050400002F5B064A54201D0FF2A02D101F5B06299
:105050001A608469364E4269A58806F12004928858
:1050600094E890118DE8901100236C46E2B91FE09E
:105070004768D0F800C057F832709CF800A0D7F805
:10508000149054F82370D9F8008007EB0A0CE0451F
:1050900002D0BAF1FF0F03D107EB010CC9F800C031
:1050A0005B1C521CDBB292B2AA4201D8042BDFD3A4
:1050B0008469002330362589426996E8D010128928
:1050C0008DE8D0106C46D2B91DE04668076856F8E6
:1050D000326097F80090D6F8148054F82360D8F81E
:1050E00000C006EB0907BC4502D0B9F1FF0F02D1A1
:1050F0000E44C8F800605B1C521CDBB292B2AA429C
:1051000001D8042BE1D300E00FE00268D0F884312D
:1051100012781D6802F18004A54201D0FF2A02D155
:1051200001F180021A6000680170BDE8FF8700008D
:10513000D45E0008202A01D9FF20704701EB8101CD
:1051400000EB011042630020704700007CB504466C
:1051500090F87800884244D0244D31B1042930D0F1
:1051600005291FD07F293FD10EE0D5E90001CDE907
:105170000001002084F878006946204600F0A0F87D
:10518000D4F8801020468847D5E90201CDE9000116
:105190007F2084F878006946204600F091F8D4F822
:1051A00084101CE000B3D5E90401CDE9000105201D
:1051B00084F878006946204600F082F8D4F8881018
:1051C0000DE088B1D5E90601CDE90001042084F89D
:1051D00078006946204600F073F8D4F88C10204619
:1051E000884794F878007CBDFF207CBDD45E000821
:1051F00002494A6810444860704700009800002047
:105200000EB501680122097841F4E061ADF80010A3
:1052100000218DF802108DF804108DF80320D0F8CD
:1052200050016946FDF752FC0EBD000038B504463A
:10523000B0F93001401C02D0204600F02BF8134B8F
:10524000002241F205012046FCF766FC0F4B0022CC
:1052500041F206012046FCF75FFCD4F834010068F7
:10526000400012D5D4F83801006800280DD04FF462
:105270007A72B0FBF2F1B0FBF2F30091044A002124
:105280002046FCF7CDFCA4F8300138BD3B190008DE
:105290002D1D000810B5002304461A4641F20501F1
:1052A000FCF73AFC00231A4641F206012046FCF7BF
:1052B00033FCB4F93001FBF74DF9A4F8300110BD0F
:1052C0002DE9F0410D460446497890F97A0001260F
:1052D000002719B148B984F87A6006E0012804D1A2
:1052E00084F87A702046FFF74FFDE878002894F89C
:1052F0007C0006D060B984F87C602046FFF796FFFA
:1053000006E0012804D184F87C702046FFF7C2FF34
:105310002879002894F87D0006D060B984F87D6073
:105320002046FDF7C5FD06E0012804D184F87D7014
:105330002046FDF7F7FDA878002894F87B0006D0FA
:1053400060B984F87B602046FDF704FD06E0012883
:1053500004D184F87B702046FDF70CFD68790028A5
:1053600094F87E0006D060B984F87E602046FCF791
:1053700031FB06E0012804D184F87E702046FCF75A
:1053800055FB2878002894F8790005D0002801D131
:1053900084F87960BDE8F0810128FBD184F8797048
:1053A0002046BDE8F041FFF72BBFD0E9013201698B
:1053B0009A60D0E901235A604A68824201D182682A
:1053C0004A60002202610868401E08600868704751
:1053D000034B036003F154000860802010607047A5
:1053E000D80A002000F108014FF0FF32C0E9011295
:1053F000C1600161002101607047002101617047B7
:1054000030B50B685A1C02D000F1080202E00269B4
:1054100004E02246546825689D42FAD953684B60DF
:1054200099608A60516008610168491C016030BD63
:1054300042684A6093688B60936859609160086124
:105440000168491C01607047502080F31188BFF348
:105450004F8FBFF36F8F0A494868401C486001288E
:105460000CD10848006810F0FF0F07D0502080F3DF
:105470001188BFF34F8FBFF36F8FFEE770470000B7
:105480008400002004ED00E00849486828B1401E6F
:10549000486001D180F311887047502080F3118853
:1054A000BFF34F8FBFF36F8FFEE700008400002033
:1054B00070B5002827D0144DA0F108046168E86891
:1054C000014207D1502080F31188BFF34F8FBFF303
:1054D0006F8FFEE722683AB1502080F31188BFF346
:1054E0004F8FBFF36F8FFEE78143616000F0CCF810
:1054F00060686968084468602046FFF735FBBDE8CE
:10550000704000F05DBC70BD6C0000204FF0E020EA
:1055100000210161816105494FF47A720968B1FB8C
:10552000F2F1491E41610721016170472C00002002
:1055300010B5FAF78FFE114910280ED300F1E020C4
:1055400090F8F0030A78904207D2502080F3118837
:10555000BFF34F8FBFF36F8FFEE70948006889687C
:1055600000F4E060884207D9502080F31188BFF32F
:105570004F8FBFF36F8FFEE710BD00008400002047
:105580000CED00E010B5020014D00F48806B38B16C
:10559000502080F31188BFF34F8FBFF36F8FFEE76A
:1055A00000F072F800211046FFF732F900F008FC15
:1055B000002807D105494FF080500860BFF34F8F96
:1055C000BFF36F8F10BD00003000002004ED00E03D
:1055D00002498A6A026049694160704730000020D0
:1055E00001490120486270473000002010B50C4688
:1055F00050B1094909681831FFF702FF2046BDE89C
:1056000010400121FFF704B9502080F31188BFF347
:105610004F8FBFF36F8FFEE73000002010B586B0CC
:105620000024039405AA04A903A80494FFF7D0FE5C
:10563000DDE903010094CDE9011000230EA110481B
:10564000059A00F09AFA0F490028486311D05020BB
:1056500080F31188BFF34F8FBFF36F8F4FF0FF3090
:1056600008630120C8614C6106B0BDE8104000F03D
:1056700041B806B010BD000049444C450000000090
:10568000654A0008300000200248816B491C816394
:1056900070470000300000201448816B11B10121D7
:1056A00041627047002141628169B1FA81F1C1F123
:1056B0001F0101EB81020E4951F822306BB101EB61
:1056C000820101F108034A6852684A609A4201D196
:1056D00052684A60D16801607047502080F3118899
:1056E000BFF34F8FBFF36F8FFEE700003000002045
:1056F0006C0D00201CB537480168374A914207D12C
:10570000502080F31188BFF34F8FBFF36F8FFEE7F8
:1057100000683149491E884207D1502080F3118822
:10572000BFF34F8FBFF36F8FFEE72C4908780190CE
:10573000FF20087008788DF800009DF800009DF8A3
:10574000002000F0F000904207D0502080F3118834
:10575000BFF34F8FBFF36F8FFEE79DF80000204B24
:1057600000F0500018700720986005E09DF80020B8
:1057700052008DF80020401E9DF800201206F5D43E
:105780009860032807D0502080F31188BFF34F8F13
:10579000BFF36F8FFEE74FF4407098600198087078
:1057A0000C482030016841F470010160016841F04B
:1057B00070410160FFF7AAFE00205860FAF712FD61
:1057C0000848016841F040410160FAF7F7FC002009
:1057D0001CBD000000ED00E071C20F4100E400E0DC
:1057E0008400002034EF00E0F8B517460E460500AF
:1057F00014D0DEB105FB06F04830FFF743FA040091
:105800000AD0002084F8460004F148023B463146A5
:1058100028460094FFF756F92046F8BD502080F343
:105820001188BFF34F8FBFF36F8FFEE70020E3E7D0
:1058300070B50D46040025D0FFF706FED4E90F2011
:10584000216802FB001161600021A1632168A16051
:105850000A46D4E90F01401E00FB0121E160214608
:105860004FF0FF3001F8440F487004F110008DB183
:10587000FFF7B8FD04F12400FFF7B4FDFFF704FEC5
:10588000012070BD502080F31188BFF34F8FBFF30C
:105890006F8FFEE721690029F0D000F057FA002849
:1058A000ECD004494FF080500860BFF34F8FBFF336
:1058B0006F8FE3E704ED00E02DE9F0471F469046C7
:1058C0008946040003D0B9F1000F08D011E0502040
:1058D00080F31188BFF34F8FBFF36F8FFEE7206C0B
:1058E00038B1502080F31188BFF34F8FBFF36F8F13
:1058F000FEE7022F0AD1E06B012807D0502080F389
:105900001188BFF34F8FBFF36F8FFEE7FFF710FED5
:105910005020EFF3118680F31188BFF34F8FBFF350
:105920006F8FA06BE16B884206D3022F04D000205A
:1059300086F31188BDE8F08794F945503A46494608
:105940002046FFF718F8681C04D06D1C84F84550F9
:105950000120EDE7606A0028FAD004F1240000F08D
:10596000F5F90028F4D0B8F1000FF1D00121C8F802
:105970000010EDE72DE9F747002683B08A460400C2
:1059800003D0BAF1000F08D011E0502080F3118845
:10599000BFF34F8FBFF36F8FFEE7206C38B15020FD
:1059A00080F31188BFF34F8FBFF36F8FFEE700F0D6
:1059B0000FF9DFF8F4804FF000094FF0805748B935
:1059C000059838B1502080F31188BFF34F8FBFF393
:1059D0006F8FFEE7FFF738FDA56BC5B15146204636
:1059E000FEF7B6FF6D1EA563206950B104F11000EB
:1059F00000F0ACF928B1C8F80070BFF34F8FBFF3C7
:105A00006F8FFFF741FD012006B0BDE8F0870598D4
:105A100008B11EB106E0FFF737FD27E06846FFF743
:105A2000D7FD0126FFF730FDFFF72EFEFFF70CFD37
:105A300094F94400401C01D184F8449094F9450045
:105A4000401C01D184F84590FFF71EFD05A968466A
:105A500000F02CF8002820460AD0FFF7DDF800F00F
:105A6000AFF92046FFF7A6F80028B3D00020CBE717
:105A7000FFF7A0F890B104F124000599FFF7B6FDF7
:105A80002046FFF7C9F800F09BF90028A2D1C8F81A
:105A90000070BFF34F8FBFF36F8F9BE72046FFF778
:105AA000BBF800F08DF995E704ED00E02DE9F04139
:105AB0000C46050011D0C4B1FFF7C6FC174B5A695C
:105AC0006E682068911B471C17D02F689B6A9F4205
:105AD00019D0964217D8012410E0502080F3118885
